{
  "contractName": "MedicalData",
  "abi": [
    {
      "constant": true,
      "inputs": [
        {
          "name": "",
          "type": "uint256"
        }
      ],
      "name": "users",
      "outputs": [
        {
          "name": "company",
          "type": "string"
        }
      ],
      "payable": false,
      "stateMutability": "view",
      "type": "function"
    },
    {
      "constant": true,
      "inputs": [
        {
          "name": "",
          "type": "address"
        }
      ],
      "name": "userConnectCount",
      "outputs": [
        {
          "name": "",
          "type": "uint256"
        }
      ],
      "payable": false,
      "stateMutability": "view",
      "type": "function"
    },
    {
      "constant": true,
      "inputs": [],
      "name": "owner",
      "outputs": [
        {
          "name": "",
          "type": "address"
        }
      ],
      "payable": false,
      "stateMutability": "view",
      "type": "function"
    },
    {
      "constant": true,
      "inputs": [
        {
          "name": "",
          "type": "address"
        }
      ],
      "name": "userLookCount",
      "outputs": [
        {
          "name": "",
          "type": "uint256"
        }
      ],
      "payable": false,
      "stateMutability": "view",
      "type": "function"
    },
    {
      "constant": true,
      "inputs": [
        {
          "name": "",
          "type": "uint256"
        }
      ],
      "name": "userToIdAddress",
      "outputs": [
        {
          "name": "",
          "type": "address"
        }
      ],
      "payable": false,
      "stateMutability": "view",
      "type": "function"
    },
    {
      "inputs": [],
      "payable": false,
      "stateMutability": "nonpayable",
      "type": "constructor"
    },
    {
      "anonymous": false,
      "inputs": [
        {
          "indexed": false,
          "name": "id",
          "type": "uint256"
        },
        {
          "indexed": false,
          "name": "company",
          "type": "string"
        }
      ],
      "name": "NewUser",
      "type": "event"
    },
    {
      "constant": false,
      "inputs": [
        {
          "name": "company",
          "type": "string"
        }
      ],
      "name": "createUser",
      "outputs": [],
      "payable": false,
      "stateMutability": "nonpayable",
      "type": "function"
    },
    {
      "constant": false,
      "inputs": [],
      "name": "login",
      "outputs": [],
      "payable": false,
      "stateMutability": "nonpayable",
      "type": "function"
    },
    {
      "constant": true,
      "inputs": [
        {
          "name": "id",
          "type": "uint256"
        }
      ],
      "name": "findUsers",
      "outputs": [
        {
          "name": "",
          "type": "string"
        },
        {
          "name": "",
          "type": "uint256"
        },
        {
          "name": "",
          "type": "uint256"
        }
      ],
      "payable": false,
      "stateMutability": "view",
      "type": "function"
    },
    {
      "constant": false,
      "inputs": [],
      "name": "deposit",
      "outputs": [],
      "payable": true,
      "stateMutability": "payable",
      "type": "function"
    },
    {
      "constant": true,
      "inputs": [],
      "name": "getBalance",
      "outputs": [
        {
          "name": "",
          "type": "uint256"
        }
      ],
      "payable": false,
      "stateMutability": "view",
      "type": "function"
    },
    {
      "constant": false,
      "inputs": [],
      "name": "pay",
      "outputs": [
        {
          "name": "",
          "type": "uint256"
        }
      ],
      "payable": false,
      "stateMutability": "nonpayable",
      "type": "function"
    },
    {
      "constant": false,
      "inputs": [],
      "name": "reading",
      "outputs": [],
      "payable": false,
      "stateMutability": "nonpayable",
      "type": "function"
    }
  ],
  "bytecode": "0x608060405234801561001057600080fd5b50336000806101000a81548173ffffffffffffffffffffffffffffffffffffffff021916908373ffffffffffffffffffffffffffffffffffffffff16021790555061005f61006460201b60201c565b610298565b6000809054906101000a900473ffffffffffffffffffffffffffffffffffffffff1673ffffffffffffffffffffffffffffffffffffffff163373ffffffffffffffffffffffffffffffffffffffff16146100bd57600080fd5b600060018060405180602001604052806040518060400160405280600781526020017f6d616e616765720000000000000000000000000000000000000000000000000081525081525090806001815401808255809150509060018203906000526020600020016000909192909190915060008201518160000190805190602001906101499291906101f3565b505050039050336002600083815260200190815260200160002060006101000a81548173ffffffffffffffffffffffffffffffffffffffff021916908373ffffffffffffffffffffffffffffffffffffffff160217905550600460003373ffffffffffffffffffffffffffffffffffffffff1673ffffffffffffffffffffffffffffffffffffffff1681526020019081526020016000206000815480929190600101919050555050565b828054600181600116156101000203166002900490600052602060002090601f016020900481019282601f1061023457805160ff1916838001178555610262565b82800160010185558215610262579182015b82811115610261578251825591602001919060010190610246565b5b50905061026f9190610273565b5090565b61029591905b80821115610291576000816000905550600101610279565b5090565b90565b610cff806102a76000396000f3fe6080604052600436106100a75760003560e01c80638da5cb5b116100645780638da5cb5b146103a5578063b34e97e8146103fc578063d0e30db014610413578063e45b32571461041d578063e632a09714610482578063fffd52c6146104fd576100a7565b806312065fe0146100ac5780631a17900b146100d75780631b9265b814610199578063365b98b2146101c457806337a5b15214610278578063507ffba5146102dd575b600080fd5b3480156100b857600080fd5b506100c1610514565b6040518082815260200191505060405180910390f35b3480156100e357600080fd5b50610110600480360360208110156100fa57600080fd5b8101908080359060200190929190505050610533565b6040518080602001848152602001838152602001828103825285818151815260200191508051906020019080838360005b8381101561015c578082015181840152602081019050610141565b50505050905090810190601f1680156101895780820380516001836020036101000a031916815260200191505b5094505050505060405180910390f35b3480156101a557600080fd5b506101ae61070d565b6040518082815260200191505060405180910390f35b3480156101d057600080fd5b506101fd600480360360208110156101e757600080fd5b81019080803590602001909291905050506107ab565b6040518080602001828103825283818151815260200191508051906020019080838360005b8381101561023d578082015181840152602081019050610222565b50505050905090810190601f16801561026a5780820380516001836020036101000a031916815260200191505b509250505060405180910390f35b34801561028457600080fd5b506102c76004803603602081101561029b57600080fd5b81019080803573ffffffffffffffffffffffffffffffffffffffff16906020019092919050505061086a565b6040518082815260200191505060405180910390f35b3480156102e957600080fd5b506103a36004803603602081101561030057600080fd5b810190808035906020019064010000000081111561031d57600080fd5b82018360208201111561032f57600080fd5b8035906020019184600183028401116401000000008311171561035157600080fd5b91908080601f016020809104026020016040519081016040528093929190818152602001838380828437600081840152601f19601f820116905080830192505050505050509192919290505050610882565b005b3480156103b157600080fd5b506103ba610a74565b604051808273ffffffffffffffffffffffffffffffffffffffff1673ffffffffffffffffffffffffffffffffffffffff16815260200191505060405180910390f35b34801561040857600080fd5b50610411610a99565b005b61041b610b37565b005b34801561042957600080fd5b5061046c6004803603602081101561044057600080fd5b81019080803573ffffffffffffffffffffffffffffffffffffffff169060200190929190505050610b92565b6040518082815260200191505060405180910390f35b34801561048e57600080fd5b506104bb600480360360208110156104a557600080fd5b8101908080359060200190929190505050610baa565b604051808273ffffffffffffffffffffffffffffffffffffffff1673ffffffffffffffffffffffffffffffffffffffff16815260200191505060405180910390f35b34801561050957600080fd5b50610512610bdd565b005b60003073ffffffffffffffffffffffffffffffffffffffff1631905090565b60606000806000809054906101000a900473ffffffffffffffffffffffffffffffffffffffff1673ffffffffffffffffffffffffffffffffffffffff163373ffffffffffffffffffffffffffffffffffffffff161461059157600080fd5b60006002600086815260200190815260200160002060009054906101000a900473ffffffffffffffffffffffffffffffffffffffff169050600185815481106105d657fe5b90600052602060002001600001600360008373ffffffffffffffffffffffffffffffffffffffff1673ffffffffffffffffffffffffffffffffffffffff16815260200190815260200160002054600460008473ffffffffffffffffffffffffffffffffffffffff1673ffffffffffffffffffffffffffffffffffffffff16815260200190815260200160002054828054600181600116156101000203166002900480601f0160208091040260200160405190810160405280929190818152602001828054600181600116156101000203166002900480156106f85780601f106106cd576101008083540402835291602001916106f8565b820191906000526020600020905b8154815290600101906020018083116106db57829003601f168201915b50505050509250935093509350509193909250565b60003373ffffffffffffffffffffffffffffffffffffffff166108fc670de0b6b3a7640000600360003373ffffffffffffffffffffffffffffffffffffffff1673ffffffffffffffffffffffffffffffffffffffff168152602001908152602001600020540261077b610514565b039081150290604051600060405180830381858888f193505050501580156107a7573d6000803e3d6000fd5b5090565b600181815481106107b857fe5b90600052602060002001600091509050806000018054600181600116156101000203166002900480601f0160208091040260200160405190810160405280929190818152602001828054600181600116156101000203166002900480156108605780601f1061083557610100808354040283529160200191610860565b820191906000526020600020905b81548152906001019060200180831161084357829003601f168201915b5050505050905081565b60046020528060005260406000206000915090505481565b6000600460003373ffffffffffffffffffffffffffffffffffffffff1673ffffffffffffffffffffffffffffffffffffffff16815260200190815260200160002054146108ce57600080fd5b60006001806040518060200160405280858152509080600181540180825580915050906001820390600052602060002001600090919290919091506000820151816000019080519060200190610925929190610c2e565b505050039050336002600083815260200190815260200160002060006101000a81548173ffffffffffffffffffffffffffffffffffffffff021916908373ffffffffffffffffffffffffffffffffffffffff1602179055507f3a52155893b2ec6509fcf7e2ecd1f6ee597aa43c6dbb274922f27e856176428181836040518083815260200180602001828103825283818151815260200191508051906020019080838360005b838110156109e65780820151818401526020810190506109cb565b50505050905090810190601f168015610a135780820380516001836020036101000a031916815260200191505b50935050505060405180910390a1600460003373ffffffffffffffffffffffffffffffffffffffff1673ffffffffffffffffffffffffffffffffffffffff168152602001908152602001600020600081548092919060010191905055505050565b6000809054906101000a900473ffffffffffffffffffffffffffffffffffffffff1681565b6000600460003373ffffffffffffffffffffffffffffffffffffffff1673ffffffffffffffffffffffffffffffffffffffff168152602001908152602001600020541415610ae657600080fd5b600460003373ffffffffffffffffffffffffffffffffffffffff1673ffffffffffffffffffffffffffffffffffffffff16815260200190815260200160002060008154809291906001019190505550565b6000809054906101000a900473ffffffffffffffffffffffffffffffffffffffff1673ffffffffffffffffffffffffffffffffffffffff163373ffffffffffffffffffffffffffffffffffffffff1614610b9057600080fd5b565b60036020528060005260406000206000915090505481565b60026020528060005260406000206000915054906101000a900473ffffffffffffffffffffffffffffffffffffffff1681565b600360003373ffffffffffffffffffffffffffffffffffffffff1673ffffffffffffffffffffffffffffffffffffffff16815260200190815260200160002060008154809291906001019190505550565b828054600181600116156101000203166002900490600052602060002090601f016020900481019282601f10610c6f57805160ff1916838001178555610c9d565b82800160010185558215610c9d579182015b82811115610c9c578251825591602001919060010190610c81565b5b509050610caa9190610cae565b5090565b610cd091905b80821115610ccc576000816000905550600101610cb4565b5090565b9056fea165627a7a7230582067841bf25b800c78c845945aca717ff19c8bb778988b89549b3f44787759a4550029",
  "source": "pragma solidity ^0.5.1;\n\ncontract MedicalData{\n\n    event NewUser(uint id,string company);\n    address public owner; //=>msg.sender\n\n    struct User{\n         string company;//회사명\n         //string name; //사용자 이름(회사명으로 할지, 사용자 이름으로 할지, 둘다 할지 =>가스 고려)\n         //uint num; //이름 또는 회사 동일할시 키역할\n         //uint lookCount; //열람횟수 구조체에 저장할지 mapping으로 저장할지\n    }\n\n    User[] public users; //유저 저장 배열\n\n    mapping(uint => address) public userToIdAddress; //유저 id에 address mapping\n    mapping(address => uint) public userLookCount; //주소별 열람 횟수 mapping\n    mapping(address => uint) public userConnectCount;\n\n    constructor()public{\n        owner = msg.sender;\n        _createManager();\n    }\n\n    //관리자 생성\n    function _createManager() private {\n        require(msg.sender==owner);\n        uint id = users.push(User(\"manager\"))-1; //id값 부여\n        userToIdAddress[id] = msg.sender; //id값에 유저 address mapping\n        userConnectCount[msg.sender]++;\n    }\n\n    //유저 생성 => 이름, 번호 입력\n    function createUser(string memory company) public {\n        require(userConnectCount[msg.sender]==0);\n        uint id = users.push(User(company))-1; //id값 부여\n        userToIdAddress[id] = msg.sender; //id값에 유저 address mapping\n        emit NewUser(id,company); //이벤트 발생(프론트 전달)\n        userConnectCount[msg.sender]++;\n    }\n\n    function login()public{\n        require(userConnectCount[msg.sender]!=0);\n        userConnectCount[msg.sender]++;\n    }\n\n    function findUsers(uint id)public view returns(string memory,uint,uint){\n        require(msg.sender==owner); //관리자만 가능하게\n        address add = userToIdAddress[id];\n        return (users[id].company,userLookCount[add],userConnectCount[add]);\n    }\n\n    // //contract에 예치금 전송\n    function deposit() public payable {\n        require(msg.sender==owner); //contract에 예치금 전송\n    }\n\n    // //user의 잔고 확인\n    function getBalance()public view returns(uint){\n        // require(msg.sender==owner); //owner와 sender가 같을때\n        return address(this).balance; //owner의 잔고 반환\n    }\n\n    function pay()public returns(uint){\n        msg.sender.transfer(getBalance()-userLookCount[msg.sender]*1000000000000000000);\n    }\n\n    //데이터 열람\n    function reading() public{\n        userLookCount[msg.sender]++; //열람 카운트+1\n    }\n}",
  "sourcePath": "/Users/bagminseo/Desktop/coding/Blockchain/React_Dapp/contracts/MedicalData.sol",
  "compiler": {
    "name": "solc",
    "version": "0.5.8+commit.23d335f2.Emscripten.clang"
  },
  "schemaVersion": "3.0.11",
  "updatedAt": "2019-07-12T08:13:22.687Z",
  "devdoc": {
    "methods": {}
  },
  "userdoc": {
    "methods": {}
  }
}