{
  "contractName": "MedicalData",
  "abi": [
    {
      "constant": true,
      "inputs": [
        {
          "name": "",
          "type": "uint256"
        }
      ],
      "name": "users",
      "outputs": [
        {
          "name": "company",
          "type": "string"
        }
      ],
      "payable": false,
      "stateMutability": "view",
      "type": "function"
    },
    {
      "constant": true,
      "inputs": [
        {
          "name": "",
          "type": "address"
        }
      ],
      "name": "userConnectCount",
      "outputs": [
        {
          "name": "",
          "type": "uint256"
        }
      ],
      "payable": false,
      "stateMutability": "view",
      "type": "function"
    },
    {
      "constant": true,
      "inputs": [],
      "name": "owner",
      "outputs": [
        {
          "name": "",
          "type": "address"
        }
      ],
      "payable": false,
      "stateMutability": "view",
      "type": "function"
    },
    {
      "constant": true,
      "inputs": [
        {
          "name": "",
          "type": "address"
        }
      ],
      "name": "userAddressToId",
      "outputs": [
        {
          "name": "",
          "type": "uint256"
        }
      ],
      "payable": false,
      "stateMutability": "view",
      "type": "function"
    },
    {
      "constant": true,
      "inputs": [
        {
          "name": "",
          "type": "address"
        }
      ],
      "name": "userLookCount",
      "outputs": [
        {
          "name": "",
          "type": "uint256"
        }
      ],
      "payable": false,
      "stateMutability": "view",
      "type": "function"
    },
    {
      "inputs": [],
      "payable": false,
      "stateMutability": "nonpayable",
      "type": "constructor"
    },
    {
      "anonymous": false,
      "inputs": [
        {
          "indexed": false,
          "name": "id",
          "type": "uint256"
        },
        {
          "indexed": false,
          "name": "company",
          "type": "string"
        }
      ],
      "name": "NewUser",
      "type": "event"
    },
    {
      "constant": true,
      "inputs": [],
      "name": "test",
      "outputs": [
        {
          "name": "",
          "type": "uint256"
        }
      ],
      "payable": false,
      "stateMutability": "view",
      "type": "function"
    },
    {
      "constant": false,
      "inputs": [
        {
          "name": "company",
          "type": "string"
        }
      ],
      "name": "createUser",
      "outputs": [],
      "payable": false,
      "stateMutability": "nonpayable",
      "type": "function"
    },
    {
      "constant": true,
      "inputs": [],
      "name": "getBalance",
      "outputs": [
        {
          "name": "",
          "type": "uint256"
        }
      ],
      "payable": false,
      "stateMutability": "view",
      "type": "function"
    },
    {
      "constant": true,
      "inputs": [
        {
          "name": "add",
          "type": "address"
        }
      ],
      "name": "getCompany",
      "outputs": [
        {
          "name": "",
          "type": "string"
        }
      ],
      "payable": false,
      "stateMutability": "view",
      "type": "function"
    },
    {
      "constant": true,
      "inputs": [
        {
          "name": "add",
          "type": "address"
        }
      ],
      "name": "getCount",
      "outputs": [
        {
          "name": "",
          "type": "uint256"
        }
      ],
      "payable": false,
      "stateMutability": "view",
      "type": "function"
    },
    {
      "constant": true,
      "inputs": [
        {
          "name": "add",
          "type": "address"
        }
      ],
      "name": "getLoginCount",
      "outputs": [
        {
          "name": "",
          "type": "uint256"
        }
      ],
      "payable": false,
      "stateMutability": "view",
      "type": "function"
    },
    {
      "constant": false,
      "inputs": [
        {
          "name": "nums",
          "type": "uint256"
        }
      ],
      "name": "reading",
      "outputs": [],
      "payable": false,
      "stateMutability": "nonpayable",
      "type": "function"
    },
    {
      "constant": false,
      "inputs": [
        {
          "name": "company",
          "type": "string"
        }
      ],
      "name": "login",
      "outputs": [],
      "payable": false,
      "stateMutability": "nonpayable",
      "type": "function"
    },
    {
      "constant": true,
      "inputs": [
        {
          "name": "add",
          "type": "address"
        }
      ],
      "name": "findUsers",
      "outputs": [
        {
          "name": "company",
          "type": "string"
        },
        {
          "name": "look",
          "type": "uint256"
        },
        {
          "name": "connect",
          "type": "uint256"
        }
      ],
      "payable": false,
      "stateMutability": "view",
      "type": "function"
    }
  ],
  "bytecode": "0x608060405234801561001057600080fd5b50336000806101000a81548173ffffffffffffffffffffffffffffffffffffffff021916908373ffffffffffffffffffffffffffffffffffffffff160217905550610e1d806100606000396000f3006080604052600436106100d0576000357c0100000000000000000000000000000000000000000000000000000000900463ffffffff16806312065fe0146100d5578063365b98b21461010057806337a5b152146101a65780633a7d280c146101fd5780634f0cd27b14610266578063507ffba5146102bd57806362bc56e61461032657806368571fda146103e2578063875fe7fa146104395780638da5cb5b146104665780638dcc32e4146104bd5780639f78a94614610587578063e45b3257146105de578063f8a8fd6d14610635575b600080fd5b3480156100e157600080fd5b506100ea610660565b6040518082815260200191505060405180910390f35b34801561010c57600080fd5b5061012b6004803603810190808035906020019092919050505061067f565b6040518080602001828103825283818151815260200191508051906020019080838360005b8381101561016b578082015181840152602081019050610150565b50505050905090810190601f1680156101985780820380516001836020036101000a031916815260200191505b509250505060405180910390f35b3480156101b257600080fd5b506101e7600480360381019080803573ffffffffffffffffffffffffffffffffffffffff169060200190929190505050610740565b6040518082815260200191505060405180910390f35b34801561020957600080fd5b50610264600480360381019080803590602001908201803590602001908080601f0160208091040260200160405190810160405280939291908181526020018383808284378201915050505050509192919290505050610758565b005b34801561027257600080fd5b506102a7600480360381019080803573ffffffffffffffffffffffffffffffffffffffff1690602001909291905050506107fc565b6040518082815260200191505060405180910390f35b3480156102c957600080fd5b50610324600480360381019080803590602001908201803590602001908080601f0160208091040260200160405190810160405280939291908181526020018383808284378201915050505050509192919290505050610845565b005b34801561033257600080fd5b50610367600480360381019080803573ffffffffffffffffffffffffffffffffffffffff169060200190929190505050610938565b6040518080602001828103825283818151815260200191508051906020019080838360005b838110156103a757808201518184015260208101905061038c565b50505050905090810190601f1680156103d45780820380516001836020036101000a031916815260200191505b509250505060405180910390f35b3480156103ee57600080fd5b50610423600480360381019080803573ffffffffffffffffffffffffffffffffffffffff169060200190929190505050610a35565b6040518082815260200191505060405180910390f35b34801561044557600080fd5b5061046460048036038101908080359060200190929190505050610a7e565b005b34801561047257600080fd5b5061047b610ace565b604051808273ffffffffffffffffffffffffffffffffffffffff1673ffffffffffffffffffffffffffffffffffffffff16815260200191505060405180910390f35b3480156104c957600080fd5b506104fe600480360381019080803573ffffffffffffffffffffffffffffffffffffffff169060200190929190505050610af3565b6040518080602001848152602001838152602001828103825285818151815260200191508051906020019080838360005b8381101561054a57808201518184015260208101905061052f565b50505050905090810190601f1680156105775780820380516001836020036101000a031916815260200191505b5094505050505060405180910390f35b34801561059357600080fd5b506105c8600480360381019080803573ffffffffffffffffffffffffffffffffffffffff169060200190929190505050610d13565b6040518082815260200191505060405180910390f35b3480156105ea57600080fd5b5061061f600480360381019080803573ffffffffffffffffffffffffffffffffffffffff169060200190929190505050610d2b565b6040518082815260200191505060405180910390f35b34801561064157600080fd5b5061064a610d43565b6040518082815260200191505060405180910390f35b60003073ffffffffffffffffffffffffffffffffffffffff1631905090565b60018181548110151561068e57fe5b90600052602060002001600091509050806000018054600181600116156101000203166002900480601f0160208091040260200160405190810160405280929190818152602001828054600181600116156101000203166002900480156107365780601f1061070b57610100808354040283529160200191610736565b820191906000526020600020905b81548152906001019060200180831161071957829003601f168201915b5050505050905081565b60036020528060005260406000206000915090505481565b6000600360003373ffffffffffffffffffffffffffffffffffffffff1673ffffffffffffffffffffffffffffffffffffffff1681526020019081526020016000205414156107aa576107a981610845565b5b600360003373ffffffffffffffffffffffffffffffffffffffff1673ffffffffffffffffffffffffffffffffffffffff1681526020019081526020016000206000815480929190600101919050555050565b6000600260008373ffffffffffffffffffffffffffffffffffffffff1673ffffffffffffffffffffffffffffffffffffffff168152602001908152602001600020549050919050565b600080600360003373ffffffffffffffffffffffffffffffffffffffff1673ffffffffffffffffffffffffffffffffffffffff1681526020019081526020016000205414151561089457600080fd5b6001806020604051908101604052808581525090806001815401808255809150509060018203906000526020600020016000909192909190915060008201518160000190805190602001906108ea929190610d4c565b50505003905080600460003373ffffffffffffffffffffffffffffffffffffffff1673ffffffffffffffffffffffffffffffffffffffff168152602001908152602001600020819055505050565b60606001600460008473ffffffffffffffffffffffffffffffffffffffff1673ffffffffffffffffffffffffffffffffffffffff1681526020019081526020016000205481548110151561098857fe5b906000526020600020016000018054600181600116156101000203166002900480601f016020809104026020016040519081016040528092919081815260200182805460018160011615610100020316600290048015610a295780601f106109fe57610100808354040283529160200191610a29565b820191906000526020600020905b815481529060010190602001808311610a0c57829003601f168201915b50505050509050919050565b6000600360008373ffffffffffffffffffffffffffffffffffffffff1673ffffffffffffffffffffffffffffffffffffffff168152602001908152602001600020549050919050565b80600260003373ffffffffffffffffffffffffffffffffffffffff1673ffffffffffffffffffffffffffffffffffffffff1681526020019081526020016000206000828254019250508190555050565b6000809054906101000a900473ffffffffffffffffffffffffffffffffffffffff1681565b606060008060008060009054906101000a900473ffffffffffffffffffffffffffffffffffffffff1673ffffffffffffffffffffffffffffffffffffffff163373ffffffffffffffffffffffffffffffffffffffff161480610b8057508473ffffffffffffffffffffffffffffffffffffffff163373ffffffffffffffffffffffffffffffffffffffff16145b1515610b8b57600080fd5b600460008673ffffffffffffffffffffffffffffffffffffffff1673ffffffffffffffffffffffffffffffffffffffff168152602001908152602001600020549050600181815481101515610bdc57fe5b90600052602060002001600001600260008773ffffffffffffffffffffffffffffffffffffffff1673ffffffffffffffffffffffffffffffffffffffff16815260200190815260200160002054600360008873ffffffffffffffffffffffffffffffffffffffff1673ffffffffffffffffffffffffffffffffffffffff16815260200190815260200160002054828054600181600116156101000203166002900480601f016020809104026020016040519081016040528092919081815260200182805460018160011615610100020316600290048015610cfe5780601f10610cd357610100808354040283529160200191610cfe565b820191906000526020600020905b815481529060010190602001808311610ce157829003601f168201915b50505050509250935093509350509193909250565b60046020528060005260406000206000915090505481565b60026020528060005260406000206000915090505481565b60006005905090565b828054600181600116156101000203166002900490600052602060002090601f016020900481019282601f10610d8d57805160ff1916838001178555610dbb565b82800160010185558215610dbb579182015b82811115610dba578251825591602001919060010190610d9f565b5b509050610dc89190610dcc565b5090565b610dee91905b80821115610dea576000816000905550600101610dd2565b5090565b905600a165627a7a72305820964d08f90043159a6d0f33349e5616ae8771a99335efed70ab6d30a75855fde10029",
  "source": "pragma solidity ^0.4.24;\r\n\r\ncontract MedicalData{\r\n    event NewUser(uint id,string company);\r\n    address public owner; //=>msg.sender\r\n\r\n    struct User{\r\n         string company;//회사명\r\n         //string name; //사용자 이름(회사명으로 할지, 사용자 이름으로 할지, 둘다 할지 =>가스 고려)\r\n         //uint num; //이름 또는 회사 동일할시 키역할\r\n         //uint lookCount; //열람횟수 구조체에 저장할지 mapping으로 저장할지\r\n    }\r\n    \r\n    User[] public users; //유저 저장 배열\r\n    mapping(address => uint) public userLookCount;\r\n    mapping(address => uint) public userConnectCount; \r\n    mapping(address => uint) public userAddressToId; //유저 id에 address mapping\r\n\r\n    constructor() public {\r\n        owner = msg.sender;\r\n    }\r\n    \r\n    function test() public view returns(uint){\r\n        return 5;\r\n    }\r\n\r\n    function createUser(string memory company) public {\r\n        require(userConnectCount[msg.sender]==0);\r\n        uint id = users.push(User(company))-1; //id값 부여\r\n        userAddressToId[msg.sender] = id; //id값에 유저 address mapping\r\n        //emit NewUser(id,company); //이벤트 발생(프론트 전달)\r\n    }\r\n\r\n    function getBalance() public view returns (uint) {\r\n        return address(this).balance;\r\n    }\r\n    \r\n    function getCompany(address add)public view returns (string memory){\r\n        return users[userAddressToId[add]].company;\r\n    }\r\n\r\n    function getCount(address add) public view returns (uint) {\r\n        return userLookCount[add];\r\n    }\r\n\r\n    function getLoginCount(address add) public view returns (uint){\r\n        return userConnectCount[add];\r\n    }\r\n\r\n    function reading(uint nums) public {\r\n        userLookCount[msg.sender]+=nums;\r\n    }\r\n\r\n    function login(string memory company) public {\r\n        if(userConnectCount[msg.sender]==0)\r\n            createUser(company);\r\n        userConnectCount[msg.sender]++;\r\n    }\r\n\r\n    function findUsers(address add)public view returns(string memory company,uint look,uint connect){\r\n        require(msg.sender==owner||msg.sender==add); //관리자만 가능하게\r\n        uint id = userAddressToId[add];\r\n        return (users[id].company,userLookCount[add],userConnectCount[add]);\r\n    }\r\n}\r\n",
  "sourcePath": "D:\\klaytn\\Ground_X_project\\Medical_data_klaytn\\contracts\\MedicalData.sol",
  "compiler": {
    "name": "solc",
    "version": "0.4.25+commit.59dbf8f1.Emscripten.clang"
  },
  "schemaVersion": "2.0.2",
  "updatedAt": "2019-07-26T04:52:56.734Z"
}